{
  "_format": "hh-sol-artifact-1",
  "contractName": "AuditLog",
  "sourceName": "contracts/AuditLog.sol",
  "abi": [
    {
      "inputs": [
        {
          "internalType": "string",
          "name": "txId",
          "type": "string"
        }
      ],
      "name": "getLog",
      "outputs": [
        {
          "internalType": "string",
          "name": "",
          "type": "string"
        }
      ],
      "stateMutability": "view",
      "type": "function"
    },
    {
      "inputs": [
        {
          "internalType": "string",
          "name": "",
          "type": "string"
        }
      ],
      "name": "logs",
      "outputs": [
        {
          "internalType": "string",
          "name": "logHash",
          "type": "string"
        },
        {
          "internalType": "string",
          "name": "ruleId",
          "type": "string"
        }
      ],
      "stateMutability": "view",
      "type": "function"
    },
    {
      "inputs": [
        {
          "internalType": "string",
          "name": "txId",
          "type": "string"
        },
        {
          "internalType": "string",
          "name": "logHash",
          "type": "string"
        },
        {
          "internalType": "string",
          "name": "ruleId",
          "type": "string"
        }
      ],
      "name": "storeLog",
      "outputs": [],
      "stateMutability": "nonpayable",
      "type": "function"
    }
  ],
  "bytecode": "0x608060405234801561001057600080fd5b506109ba806100206000396000f3fe608060405234801561001057600080fd5b50600436106100415760003560e01c806316c6f55614610046578063369c487b14610062578063ca85af2a14610092575b600080fd5b610060600480360381019061005b9190610481565b6100c3565b005b61007c60048036038101906100779190610528565b61012a565b60405161008991906105f0565b60405180910390f35b6100ac60048036038101906100a79190610528565b6101dd565b6040516100ba929190610612565b60405180910390f35b6040518060400160405280838152602001828152506000846040516100e89190610685565b9081526020016040518091039020600082015181600001908161010b91906108b2565b50602082015181600101908161012191906108b2565b50905050505050565b606060008260405161013c9190610685565b90815260200160405180910390206000018054610158906106cb565b80601f0160208091040260200160405190810160405280929190818152602001828054610184906106cb565b80156101d15780601f106101a6576101008083540402835291602001916101d1565b820191906000526020600020905b8154815290600101906020018083116101b457829003601f168201915b50505050509050919050565b600081805160208101820180518482526020830160208501208183528095505050505050600091509050806000018054610216906106cb565b80601f0160208091040260200160405190810160405280929190818152602001828054610242906106cb565b801561028f5780601f106102645761010080835404028352916020019161028f565b820191906000526020600020905b81548152906001019060200180831161027257829003601f168201915b5050505050908060010180546102a4906106cb565b80601f01602080910402602001604051908101604052809291908181526020018280546102d0906106cb565b801561031d5780601f106102f25761010080835404028352916020019161031d565b820191906000526020600020905b81548152906001019060200180831161030057829003601f168201915b5050505050905082565b6000604051905090565b600080fd5b600080fd5b600080fd5b600080fd5b6000601f19601f8301169050919050565b7f4e487b7100000000000000000000000000000000000000000000000000000000600052604160045260246000fd5b61038e82610345565b810181811067ffffffffffffffff821117156103ad576103ac610356565b5b80604052505050565b60006103c0610327565b90506103cc8282610385565b919050565b600067ffffffffffffffff8211156103ec576103eb610356565b5b6103f582610345565b9050602081019050919050565b82818337600083830152505050565b600061042461041f846103d1565b6103b6565b9050828152602081018484840111156104405761043f610340565b5b61044b848285610402565b509392505050565b600082601f8301126104685761046761033b565b5b8135610478848260208601610411565b91505092915050565b60008060006060848603121561049a57610499610331565b5b600084013567ffffffffffffffff8111156104b8576104b7610336565b5b6104c486828701610453565b935050602084013567ffffffffffffffff8111156104e5576104e4610336565b5b6104f186828701610453565b925050604084013567ffffffffffffffff81111561051257610511610336565b5b61051e86828701610453565b9150509250925092565b60006020828403121561053e5761053d610331565b5b600082013567ffffffffffffffff81111561055c5761055b610336565b5b61056884828501610453565b91505092915050565b600081519050919050565b600082825260208201905092915050565b60005b838110156105ab578082015181840152602081019050610590565b60008484015250505050565b60006105c282610571565b6105cc818561057c565b93506105dc81856020860161058d565b6105e581610345565b840191505092915050565b6000602082019050818103600083015261060a81846105b7565b905092915050565b6000604082019050818103600083015261062c81856105b7565b9050818103602083015261064081846105b7565b90509392505050565b600081905092915050565b600061065f82610571565b6106698185610649565b935061067981856020860161058d565b80840191505092915050565b60006106918284610654565b915081905092915050565b7f4e487b7100000000000000000000000000000000000000000000000000000000600052602260045260246000fd5b600060028204905060018216806106e357607f821691505b6020821081036106f6576106f561069c565b5b50919050565b60008190508160005260206000209050919050565b60006020601f8301049050919050565b600082821b905092915050565b60006008830261075e7fffffffffffffffffffffffffffffffffffffffffffffffffffffffffffffffff82610721565b6107688683610721565b95508019841693508086168417925050509392505050565b6000819050919050565b6000819050919050565b60006107af6107aa6107a584610780565b61078a565b610780565b9050919050565b6000819050919050565b6107c983610794565b6107dd6107d5826107b6565b84845461072e565b825550505050565b600090565b6107f26107e5565b6107fd8184846107c0565b505050565b5b81811015610821576108166000826107ea565b600181019050610803565b5050565b601f82111561086657610837816106fc565b61084084610711565b8101602085101561084f578190505b61086361085b85610711565b830182610802565b50505b505050565b600082821c905092915050565b60006108896000198460080261086b565b1980831691505092915050565b60006108a28383610878565b9150826002028217905092915050565b6108bb82610571565b67ffffffffffffffff8111156108d4576108d3610356565b5b6108de82546106cb565b6108e9828285610825565b600060209050601f83116001811461091c576000841561090a578287015190505b6109148582610896565b86555061097c565b601f19841661092a866106fc565b60005b828110156109525784890151825560018201915060208501945060208101905061092d565b8683101561096f578489015161096b601f891682610878565b8355505b6001600288020188555050505b50505050505056fea2646970667358221220186b142b2f72af10d3f77dab553e15d3dd146a2dd53fc660fbab2c2af180c63464736f6c63430008140033",
  "linkReferences": {},
  "deployedLinkReferences": {}
}